{
  "_format": "hh-sol-artifact-1",
  "contractName": "NFT_Market_Place",
  "sourceName": "contracts/NFT_Market_Place.sol",
  "abi": [
    {
      "inputs": [],
      "stateMutability": "nonpayable",
      "type": "constructor"
    },
    {
      "anonymous": false,
      "inputs": [
        {
          "indexed": true,
          "internalType": "uint256",
          "name": "itemId",
          "type": "uint256"
        },
        {
          "indexed": true,
          "internalType": "address",
          "name": "nftContract",
          "type": "address"
        },
        {
          "indexed": true,
          "internalType": "uint256",
          "name": "tokenId",
          "type": "uint256"
        },
        {
          "indexed": false,
          "internalType": "address",
          "name": "seller",
          "type": "address"
        },
        {
          "indexed": false,
          "internalType": "address",
          "name": "owner",
          "type": "address"
        },
        {
          "indexed": false,
          "internalType": "uint256",
          "name": "price",
          "type": "uint256"
        },
        {
          "indexed": false,
          "internalType": "bool",
          "name": "isForSale",
          "type": "bool"
        }
      ],
      "name": "MarketItemCreated",
      "type": "event"
    },
    {
      "inputs": [
        {
          "internalType": "uint256",
          "name": "_value",
          "type": "uint256"
        }
      ],
      "name": "calculateListingPrice",
      "outputs": [
        {
          "internalType": "uint256",
          "name": "",
          "type": "uint256"
        }
      ],
      "stateMutability": "view",
      "type": "function"
    },
    {
      "inputs": [
        {
          "internalType": "address",
          "name": "nftContract",
          "type": "address"
        },
        {
          "internalType": "uint256",
          "name": "tokenId",
          "type": "uint256"
        },
        {
          "internalType": "uint256",
          "name": "price",
          "type": "uint256"
        },
        {
          "internalType": "uint256",
          "name": "_royalty",
          "type": "uint256"
        }
      ],
      "name": "createMarketItem",
      "outputs": [],
      "stateMutability": "nonpayable",
      "type": "function"
    },
    {
      "inputs": [
        {
          "internalType": "uint256",
          "name": "tokenId",
          "type": "uint256"
        },
        {
          "internalType": "uint256",
          "name": "_Price",
          "type": "uint256"
        }
      ],
      "name": "putTokenForSale",
      "outputs": [],
      "stateMutability": "nonpayable",
      "type": "function"
    },
    {
      "inputs": [
        {
          "internalType": "uint256",
          "name": "tokenId",
          "type": "uint256"
        },
        {
          "internalType": "uint256",
          "name": "value",
          "type": "uint256"
        }
      ],
      "name": "royaltiesInfo",
      "outputs": [
        {
          "internalType": "uint256",
          "name": "royaltyAmount",
          "type": "uint256"
        }
      ],
      "stateMutability": "view",
      "type": "function"
    },
    {
      "inputs": [
        {
          "internalType": "address",
          "name": "nftContract",
          "type": "address"
        },
        {
          "internalType": "address",
          "name": "_tokenContract",
          "type": "address"
        },
        {
          "internalType": "uint256",
          "name": "itemId",
          "type": "uint256"
        }
      ],
      "name": "sellNFT",
      "outputs": [],
      "stateMutability": "nonpayable",
      "type": "function"
    }
  ],
  "bytecode": "0x608060405260fa60055534801561001557600080fd5b50600160008190555033600460006101000a81548173ffffffffffffffffffffffffffffffffffffffff021916908373ffffffffffffffffffffffffffffffffffffffff1602179055506117348061006e6000396000f3fe608060405234801561001057600080fd5b50600436106100575760003560e01c80630574b1a81461005c5780631288682d1461008c578063599ba234146100bc578063d6e209cb146100d8578063ee882489146100f4575b600080fd5b61007660048036038101906100719190611003565b610110565b604051610083919061135f565b60405180910390f35b6100a660048036038101906100a1919061105d565b610139565b6040516100b3919061135f565b60405180910390f35b6100d660048036038101906100d19190610f6f565b610177565b005b6100f260048036038101906100ed9190610f1c565b610517565b005b61010e6004803603810190610109919061105d565b610b52565b005b6000806127106005548461012491906113c7565b61012e9190611396565b905080915050919050565b60008060066000858152602001908152602001600020600601549050612710818461016491906113c7565b61016e9190611396565b91505092915050565b600260005414156101bd576040517f08c379a00000000000000000000000000000000000000000000000000000000081526004016101b49061133f565b60405180910390fd5b60026000819055503373ffffffffffffffffffffffffffffffffffffffff168473ffffffffffffffffffffffffffffffffffffffff16636352211e856040518263ffffffff1660e01b8152600401610215919061135f565b60206040518083038186803b15801561022d57600080fd5b505afa158015610241573d6000803e3d6000fd5b505050506040513d601f19601f820116820180604052508101906102659190610eef565b73ffffffffffffffffffffffffffffffffffffffff16146102bb576040517f08c379a00000000000000000000000000000000000000000000000000000000081526004016102b29061131f565b60405180910390fd5b6102c56001610cee565b60006102d16001610d04565b90506040518061012001604052808281526020018673ffffffffffffffffffffffffffffffffffffffff1681526020018581526020013373ffffffffffffffffffffffffffffffffffffffff168152602001600073ffffffffffffffffffffffffffffffffffffffff16815260200184815260200183815260200160011515815260200160011515815250600660008381526020019081526020016000206000820151816000015560208201518160010160006101000a81548173ffffffffffffffffffffffffffffffffffffffff021916908373ffffffffffffffffffffffffffffffffffffffff1602179055506040820151816002015560608201518160030160006101000a81548173ffffffffffffffffffffffffffffffffffffffff021916908373ffffffffffffffffffffffffffffffffffffffff16021790555060808201518160040160006101000a81548173ffffffffffffffffffffffffffffffffffffffff021916908373ffffffffffffffffffffffffffffffffffffffff16021790555060a0820151816005015560c0820151816006015560e08201518160070160006101000a81548160ff0219169083151502179055506101008201518160070160016101000a81548160ff021916908315150217905550905050838573ffffffffffffffffffffffffffffffffffffffff16827f045dfa01dcba2b36aba1d3dc4a874f4b0c5d2fbeb8d2c4b34a7d88c8d8f929d1336000886001604051610500949392919061124a565b60405180910390a450600160008190555050505050565b6002600054141561055d576040517f08c379a00000000000000000000000000000000000000000000000000000000081526004016105549061133f565b60405180910390fd5b6002600081905550600060066000838152602001908152602001600020600501549050600060066000848152602001908152602001600020600201549050818473ffffffffffffffffffffffffffffffffffffffff166370a08231336040518263ffffffff1660e01b81526004016105d591906111c1565b60206040518083038186803b1580156105ed57600080fd5b505afa158015610601573d6000803e3d6000fd5b505050506040513d601f19601f820116820180604052508101906106259190611030565b1015610666576040517f08c379a000000000000000000000000000000000000000000000000000000000815260040161065d906112df565b60405180910390fd5b600115156006600085815260200190815260200160002060070160009054906101000a900460ff1615151415610806578473ffffffffffffffffffffffffffffffffffffffff166323b872dd6006600086815260200190815260200160002060030160009054906101000a900473ffffffffffffffffffffffffffffffffffffffff1633846040518463ffffffff1660e01b8152600401610709939291906111dc565b600060405180830381600087803b15801561072357600080fd5b505af1158015610737573d6000803e3d6000fd5b505050508373ffffffffffffffffffffffffffffffffffffffff166323b872dd336006600087815260200190815260200160002060030160009054906101000a900473ffffffffffffffffffffffffffffffffffffffff16856040518463ffffffff1660e01b81526004016107ae93929190611213565b602060405180830381600087803b1580156107c857600080fd5b505af11580156107dc573d6000803e3d6000fd5b505050506040513d601f19601f820116820180604052508101906108009190610fd6565b50610a6f565b60006108128484610139565b90508473ffffffffffffffffffffffffffffffffffffffff166323b872dd336006600088815260200190815260200160002060030160009054906101000a900473ffffffffffffffffffffffffffffffffffffffff16846040518463ffffffff1660e01b815260040161088793929190611213565b602060405180830381600087803b1580156108a157600080fd5b505af11580156108b5573d6000803e3d6000fd5b505050506040513d601f19601f820116820180604052508101906108d99190610fd6565b508473ffffffffffffffffffffffffffffffffffffffff166323b872dd336006600088815260200190815260200160002060040160009054906101000a900473ffffffffffffffffffffffffffffffffffffffff1661095785600660008b815260200190815260200160002060050154610d1290919063ffffffff16565b6040518463ffffffff1660e01b815260040161097593929190611213565b602060405180830381600087803b15801561098f57600080fd5b505af11580156109a3573d6000803e3d6000fd5b505050506040513d601f19601f820116820180604052508101906109c79190610fd6565b508573ffffffffffffffffffffffffffffffffffffffff166323b872dd6006600087815260200190815260200160002060040160009054906101000a900473ffffffffffffffffffffffffffffffffffffffff1633856040518463ffffffff1660e01b8152600401610a3b939291906111dc565b600060405180830381600087803b158015610a5557600080fd5b505af1158015610a69573d6000803e3d6000fd5b50505050505b336006600085815260200190815260200160002060040160006101000a81548173ffffffffffffffffffffffffffffffffffffffff021916908373ffffffffffffffffffffffffffffffffffffffff160217905550610ace6002610cee565b6000610ad983610110565b9050610ae481610d28565b60006006600086815260200190815260200160002060070160016101000a81548160ff02191690831515021790555060006006600086815260200190815260200160002060070160006101000a81548160ff0219169083151502179055505050506001600081905550505050565b6006600083815260200190815260200160002060040160009054906101000a900473ffffffffffffffffffffffffffffffffffffffff1673ffffffffffffffffffffffffffffffffffffffff163373ffffffffffffffffffffffffffffffffffffffff1614610bf6576040517f08c379a0000000000000000000000000000000000000000000000000000000008152600401610bed906112ff565b60405180910390fd5b600115156006600084815260200190815260200160002060070160019054906101000a900460ff1615151415610c61576040517f08c379a0000000000000000000000000000000000000000000000000000000008152600401610c58906112bf565b60405180910390fd5b610ca06040518060400160405280600d81526020017f6d65736167652073656e6465720000000000000000000000000000000000000081525033610dc1565b80600660008481526020019081526020016000206005018190555060016006600084815260200190815260200160002060070160016101000a81548160ff0219169083151502179055505050565b6001816000016000828254019250508190555050565b600081600001549050919050565b60008183610d209190611421565b905092915050565b610dbe81604051602401610d3c919061135f565b6040516020818303038152906040527ff5b1bba9000000000000000000000000000000000000000000000000000000007bffffffffffffffffffffffffffffffffffffffffffffffffffffffff19166020820180517bffffffffffffffffffffffffffffffffffffffffffffffffffffffff8381831617835250505050610e5d565b50565b610e598282604051602401610dd792919061128f565b6040516020818303038152906040527f319af333000000000000000000000000000000000000000000000000000000007bffffffffffffffffffffffffffffffffffffffffffffffffffffffff19166020820180517bffffffffffffffffffffffffffffffffffffffffffffffffffffffff8381831617835250505050610e5d565b5050565b60008151905060006a636f6e736f6c652e6c6f679050602083016000808483855afa5050505050565b600081359050610e95816116b9565b92915050565b600081519050610eaa816116b9565b92915050565b600081519050610ebf816116d0565b92915050565b600081359050610ed4816116e7565b92915050565b600081519050610ee9816116e7565b92915050565b600060208284031215610f0557610f04611564565b5b6000610f1384828501610e9b565b91505092915050565b600080600060608486031215610f3557610f34611564565b5b6000610f4386828701610e86565b9350506020610f5486828701610e86565b9250506040610f6586828701610ec5565b9150509250925092565b60008060008060808587031215610f8957610f88611564565b5b6000610f9787828801610e86565b9450506020610fa887828801610ec5565b9350506040610fb987828801610ec5565b9250506060610fca87828801610ec5565b91505092959194509250565b600060208284031215610fec57610feb611564565b5b6000610ffa84828501610eb0565b91505092915050565b60006020828403121561101957611018611564565b5b600061102784828501610ec5565b91505092915050565b60006020828403121561104657611045611564565b5b600061105484828501610eda565b91505092915050565b6000806040838503121561107457611073611564565b5b600061108285828601610ec5565b925050602061109385828601610ec5565b9150509250929050565b6110a68161149d565b82525050565b6110b581611455565b82525050565b6110c481611467565b82525050565b60006110d58261137a565b6110df8185611385565b93506110ef8185602086016114d3565b6110f881611569565b840191505092915050565b6000611110601883611385565b915061111b8261157a565b602082019050919050565b6000611133602483611385565b915061113e826115a3565b604082019050919050565b6000611156603283611385565b9150611161826115f2565b604082019050919050565b6000611179602d83611385565b915061118482611641565b604082019050919050565b600061119c601f83611385565b91506111a782611690565b602082019050919050565b6111bb81611493565b82525050565b60006020820190506111d660008301846110ac565b92915050565b60006060820190506111f1600083018661109d565b6111fe60208301856110ac565b61120b60408301846111b2565b949350505050565b600060608201905061122860008301866110ac565b611235602083018561109d565b61124260408301846111b2565b949350505050565b600060808201905061125f60008301876110ac565b61126c60208301866110ac565b61127960408301856111b2565b61128660608301846110bb565b95945050505050565b600060408201905081810360008301526112a981856110ca565b90506112b860208301846110ac565b9392505050565b600060208201905081810360008301526112d881611103565b9050919050565b600060208201905081810360008301526112f881611126565b9050919050565b6000602082019050818103600083015261131881611149565b9050919050565b600060208201905081810360008301526113388161116c565b9050919050565b600060208201905081810360008301526113588161118f565b9050919050565b600060208201905061137460008301846111b2565b92915050565b600081519050919050565b600082825260208201905092915050565b60006113a182611493565b91506113ac83611493565b9250826113bc576113bb611535565b5b828204905092915050565b60006113d282611493565b91506113dd83611493565b9250817fffffffffffffffffffffffffffffffffffffffffffffffffffffffffffffffff048311821515161561141657611415611506565b5b828202905092915050565b600061142c82611493565b915061143783611493565b92508282101561144a57611449611506565b5b828203905092915050565b600061146082611473565b9050919050565b60008115159050919050565b600073ffffffffffffffffffffffffffffffffffffffff82169050919050565b6000819050919050565b60006114a8826114af565b9050919050565b60006114ba826114c1565b9050919050565b60006114cc82611473565b9050919050565b60005b838110156114f15780820151818401526020810190506114d6565b83811115611500576000848401525b50505050565b7f4e487b7100000000000000000000000000000000000000000000000000000000600052601160045260246000fd5b7f4e487b7100000000000000000000000000000000000000000000000000000000600052601260045260246000fd5b600080fd5b6000601f19601f8301169050919050565b7f416c726561647920546f6b656e20697320696e2073616c650000000000000000600082015250565b7f596f7520646f6e2774204861766520546f6b656e20546f20707572636861736560008201527f204e667400000000000000000000000000000000000000000000000000000000602082015250565b7f596f752063616e206e6f742073616c652074686973206974656d20626563617560008201527f7365207520617265206e6f74206f776e65720000000000000000000000000000602082015250565b7f596f752063616e20637265617465204d61726b6574204974656d2c20596f752060008201527f617265206e6f74204f776e657200000000000000000000000000000000000000602082015250565b7f5265656e7472616e637947756172643a207265656e7472616e742063616c6c00600082015250565b6116c281611455565b81146116cd57600080fd5b50565b6116d981611467565b81146116e457600080fd5b50565b6116f081611493565b81146116fb57600080fd5b5056fea2646970667358221220a81cb34ca684a8915bb94910f9bb2aaf913b5292489aeb83b8562e09b05e139e64736f6c63430008070033",
  "linkReferences": {},
  "deployedLinkReferences": {}
}