{
  "_format": "hh-sol-artifact-1",
  "contractName": "NFT_Market_Place",
  "sourceName": "contracts/NFT_Market_Place.sol",
  "abi": [
    {
      "inputs": [],
      "stateMutability": "nonpayable",
      "type": "constructor"
    },
    {
      "anonymous": false,
      "inputs": [
        {
          "indexed": true,
          "internalType": "uint256",
          "name": "itemId",
          "type": "uint256"
        },
        {
          "indexed": true,
          "internalType": "address",
          "name": "nftContract",
          "type": "address"
        },
        {
          "indexed": true,
          "internalType": "uint256",
          "name": "tokenId",
          "type": "uint256"
        },
        {
          "indexed": false,
          "internalType": "address",
          "name": "seller",
          "type": "address"
        },
        {
          "indexed": false,
          "internalType": "address",
          "name": "owner",
          "type": "address"
        },
        {
          "indexed": false,
          "internalType": "uint256",
          "name": "price",
          "type": "uint256"
        },
        {
          "indexed": false,
          "internalType": "bool",
          "name": "isForSale",
          "type": "bool"
        }
      ],
      "name": "MarketItemCreated",
      "type": "event"
    },
    {
      "inputs": [
        {
          "internalType": "uint256",
          "name": "_value",
          "type": "uint256"
        }
      ],
      "name": "calculateListingPrice",
      "outputs": [
        {
          "internalType": "uint256",
          "name": "",
          "type": "uint256"
        }
      ],
      "stateMutability": "view",
      "type": "function"
    },
    {
      "inputs": [
        {
          "internalType": "address",
          "name": "nftContract",
          "type": "address"
        },
        {
          "internalType": "uint256",
          "name": "tokenId",
          "type": "uint256"
        },
        {
          "internalType": "uint256",
          "name": "price",
          "type": "uint256"
        },
        {
          "internalType": "uint256",
          "name": "_royalty",
          "type": "uint256"
        }
      ],
      "name": "createMarketItem",
      "outputs": [],
      "stateMutability": "payable",
      "type": "function"
    },
    {
      "inputs": [
        {
          "internalType": "address",
          "name": "nftContract",
          "type": "address"
        },
        {
          "internalType": "uint256",
          "name": "itemId",
          "type": "uint256"
        }
      ],
      "name": "purchaseNFT",
      "outputs": [],
      "stateMutability": "payable",
      "type": "function"
    },
    {
      "inputs": [
        {
          "internalType": "uint256",
          "name": "tokenId",
          "type": "uint256"
        },
        {
          "internalType": "uint256",
          "name": "_Price",
          "type": "uint256"
        }
      ],
      "name": "putTokenForSale",
      "outputs": [],
      "stateMutability": "payable",
      "type": "function"
    },
    {
      "inputs": [
        {
          "internalType": "uint256",
          "name": "tokenId",
          "type": "uint256"
        },
        {
          "internalType": "uint256",
          "name": "value",
          "type": "uint256"
        }
      ],
      "name": "royaltiesInfo",
      "outputs": [
        {
          "internalType": "uint256",
          "name": "royaltyAmount",
          "type": "uint256"
        }
      ],
      "stateMutability": "view",
      "type": "function"
    }
  ],
  "bytecode": "0x608060405260fa60045534801561001557600080fd5b50600160008190555033600360006101000a81548173ffffffffffffffffffffffffffffffffffffffff021916908373ffffffffffffffffffffffffffffffffffffffff1602179055506117108061006e6000396000f3fe60806040526004361061004a5760003560e01c80630574b1a81461004f5780631288682d1461008c578063599ba234146100c9578063a87e25ac146100e5578063ee88248914610101575b600080fd5b34801561005b57600080fd5b5061007660048036038101906100719190610f77565b61011d565b60405161008391906112da565b60405180910390f35b34801561009857600080fd5b506100b360048036038101906100ae9190610fa4565b610146565b6040516100c091906112da565b60405180910390f35b6100e360048036038101906100de9190610f10565b610184565b005b6100ff60048036038101906100fa9190610ed0565b6105b7565b005b61011b60048036038101906101169190610fa4565b610ae0565b005b600080612710600454846101319190611342565b61013b9190611311565b905080915050919050565b6000806005600085815260200190815260200160002060060154905061271081846101719190611342565b61017b9190611311565b91505092915050565b600260005414156101ca576040517f08c379a00000000000000000000000000000000000000000000000000000000081526004016101c19061129a565b60405180910390fd5b600260008190555060008211610215576040517f08c379a000000000000000000000000000000000000000000000000000000000815260040161020c906112ba565b60405180910390fd5b60006102208361011d565b9050803414610264576040517f08c379a000000000000000000000000000000000000000000000000000000000815260040161025b9061127a565b60405180910390fd5b3373ffffffffffffffffffffffffffffffffffffffff168573ffffffffffffffffffffffffffffffffffffffff16636352211e866040518263ffffffff1660e01b81526004016102b491906112da565b60206040518083038186803b1580156102cc57600080fd5b505afa1580156102e0573d6000803e3d6000fd5b505050506040513d601f19601f820116820180604052508101906103049190610ea3565b73ffffffffffffffffffffffffffffffffffffffff161461035a576040517f08c379a00000000000000000000000000000000000000000000000000000000081526004016103519061123a565b60405180910390fd5b6103646001610ccc565b60006103706001610ce2565b90506040518061012001604052808281526020018773ffffffffffffffffffffffffffffffffffffffff1681526020018681526020013373ffffffffffffffffffffffffffffffffffffffff168152602001600073ffffffffffffffffffffffffffffffffffffffff16815260200185815260200184815260200160011515815260200160011515815250600560008381526020019081526020016000206000820151816000015560208201518160010160006101000a81548173ffffffffffffffffffffffffffffffffffffffff021916908373ffffffffffffffffffffffffffffffffffffffff1602179055506040820151816002015560608201518160030160006101000a81548173ffffffffffffffffffffffffffffffffffffffff021916908373ffffffffffffffffffffffffffffffffffffffff16021790555060808201518160040160006101000a81548173ffffffffffffffffffffffffffffffffffffffff021916908373ffffffffffffffffffffffffffffffffffffffff16021790555060a0820151816005015560c0820151816006015560e08201518160070160006101000a81548160ff0219169083151502179055506101008201518160070160016101000a81548160ff021916908315150217905550905050848673ffffffffffffffffffffffffffffffffffffffff16827f045dfa01dcba2b36aba1d3dc4a874f4b0c5d2fbeb8d2c4b34a7d88c8d8f929d133600089600160405161059f9493929190611185565b60405180910390a45050600160008190555050505050565b600260005414156105fd576040517f08c379a00000000000000000000000000000000000000000000000000000000081526004016105f49061129a565b60405180910390fd5b600260008190555060006005600083815260200190815260200160002060050154905060006005600084815260200190815260200160002060020154905081341461067d576040517f08c379a00000000000000000000000000000000000000000000000000000000081526004016106749061125a565b60405180910390fd5b600115156005600085815260200190815260200160002060070160009054906101000a900460ff16151514156107d4576005600084815260200190815260200160002060030160009054906101000a900473ffffffffffffffffffffffffffffffffffffffff1673ffffffffffffffffffffffffffffffffffffffff166108fc349081150290604051600060405180830381858888f19350505050158015610729573d6000803e3d6000fd5b508373ffffffffffffffffffffffffffffffffffffffff166323b872dd6005600086815260200190815260200160002060030160009054906101000a900473ffffffffffffffffffffffffffffffffffffffff1633846040518463ffffffff1660e01b815260040161079d9392919061114e565b600060405180830381600087803b1580156107b757600080fd5b505af11580156107cb573d6000803e3d6000fd5b50505050610995565b60006107e08434610146565b90506005600085815260200190815260200160002060040160009054906101000a900473ffffffffffffffffffffffffffffffffffffffff1673ffffffffffffffffffffffffffffffffffffffff166108fc6108458334610cf090919063ffffffff16565b9081150290604051600060405180830381858888f19350505050158015610870573d6000803e3d6000fd5b508473ffffffffffffffffffffffffffffffffffffffff166323b872dd6005600087815260200190815260200160002060040160009054906101000a900473ffffffffffffffffffffffffffffffffffffffff1633856040518463ffffffff1660e01b81526004016108e49392919061114e565b600060405180830381600087803b1580156108fe57600080fd5b505af1158015610912573d6000803e3d6000fd5b505050506005600085815260200190815260200160002060030160009054906101000a900473ffffffffffffffffffffffffffffffffffffffff1673ffffffffffffffffffffffffffffffffffffffff166108fc829081150290604051600060405180830381858888f19350505050158015610992573d6000803e3d6000fd5b50505b336005600085815260200190815260200160002060040160006101000a81548173ffffffffffffffffffffffffffffffffffffffff021916908373ffffffffffffffffffffffffffffffffffffffff1602179055506109f46002610ccc565b60006109ff8361011d565b9050610a0a81610d06565b600360009054906101000a900473ffffffffffffffffffffffffffffffffffffffff1673ffffffffffffffffffffffffffffffffffffffff166108fc829081150290604051600060405180830381858888f19350505050158015610a72573d6000803e3d6000fd5b5060006005600086815260200190815260200160002060070160016101000a81548160ff02191690831515021790555060006005600086815260200190815260200160002060070160006101000a81548160ff02191690831515021790555050505060016000819055505050565b6005600083815260200190815260200160002060040160009054906101000a900473ffffffffffffffffffffffffffffffffffffffff1673ffffffffffffffffffffffffffffffffffffffff163373ffffffffffffffffffffffffffffffffffffffff1614610b84576040517f08c379a0000000000000000000000000000000000000000000000000000000008152600401610b7b9061121a565b60405180910390fd5b600115156005600084815260200190815260200160002060070160019054906101000a900460ff1615151415610bef576040517f08c379a0000000000000000000000000000000000000000000000000000000008152600401610be6906111fa565b60405180910390fd5b6000610bfa8261011d565b9050803414610c3e576040517f08c379a0000000000000000000000000000000000000000000000000000000008152600401610c359061127a565b60405180910390fd5b610c7d6040518060400160405280600d81526020017f6d65736167652073656e6465720000000000000000000000000000000000000081525033610d9f565b81600560008581526020019081526020016000206005018190555060016005600085815260200190815260200160002060070160016101000a81548160ff021916908315150217905550505050565b6001816000016000828254019250508190555050565b600081600001549050919050565b60008183610cfe919061139c565b905092915050565b610d9c81604051602401610d1a91906112da565b6040516020818303038152906040527ff5b1bba9000000000000000000000000000000000000000000000000000000007bffffffffffffffffffffffffffffffffffffffffffffffffffffffff19166020820180517bffffffffffffffffffffffffffffffffffffffffffffffffffffffff8381831617835250505050610e3b565b50565b610e378282604051602401610db59291906111ca565b6040516020818303038152906040527f319af333000000000000000000000000000000000000000000000000000000007bffffffffffffffffffffffffffffffffffffffffffffffffffffffff19166020820180517bffffffffffffffffffffffffffffffffffffffffffffffffffffffff8381831617835250505050610e3b565b5050565b60008151905060006a636f6e736f6c652e6c6f679050602083016000808483855afa5050505050565b600081359050610e73816116ac565b92915050565b600081519050610e88816116ac565b92915050565b600081359050610e9d816116c3565b92915050565b600060208284031215610eb957610eb86114df565b5b6000610ec784828501610e79565b91505092915050565b60008060408385031215610ee757610ee66114df565b5b6000610ef585828601610e64565b9250506020610f0685828601610e8e565b9150509250929050565b60008060008060808587031215610f2a57610f296114df565b5b6000610f3887828801610e64565b9450506020610f4987828801610e8e565b9350506040610f5a87828801610e8e565b9250506060610f6b87828801610e8e565b91505092959194509250565b600060208284031215610f8d57610f8c6114df565b5b6000610f9b84828501610e8e565b91505092915050565b60008060408385031215610fbb57610fba6114df565b5b6000610fc985828601610e8e565b9250506020610fda85828601610e8e565b9150509250929050565b610fed81611418565b82525050565b610ffc816113d0565b82525050565b61100b816113e2565b82525050565b600061101c826112f5565b6110268185611300565b935061103681856020860161144e565b61103f816114e4565b840191505092915050565b6000611057601883611300565b9150611062826114f5565b602082019050919050565b600061107a603283611300565b91506110858261151e565b604082019050919050565b600061109d602d83611300565b91506110a88261156d565b604082019050919050565b60006110c0604083611300565b91506110cb826115bc565b604082019050919050565b60006110e3602483611300565b91506110ee8261160b565b604082019050919050565b6000611106601f83611300565b91506111118261165a565b602082019050919050565b6000611129601c83611300565b915061113482611683565b602082019050919050565b6111488161140e565b82525050565b60006060820190506111636000830186610fe4565b6111706020830185610ff3565b61117d604083018461113f565b949350505050565b600060808201905061119a6000830187610ff3565b6111a76020830186610ff3565b6111b4604083018561113f565b6111c16060830184611002565b95945050505050565b600060408201905081810360008301526111e48185611011565b90506111f36020830184610ff3565b9392505050565b600060208201905081810360008301526112138161104a565b9050919050565b600060208201905081810360008301526112338161106d565b9050919050565b6000602082019050818103600083015261125381611090565b9050919050565b60006020820190508181036000830152611273816110b3565b9050919050565b60006020820190508181036000830152611293816110d6565b9050919050565b600060208201905081810360008301526112b3816110f9565b9050919050565b600060208201905081810360008301526112d38161111c565b9050919050565b60006020820190506112ef600083018461113f565b92915050565b600081519050919050565b600082825260208201905092915050565b600061131c8261140e565b91506113278361140e565b925082611337576113366114b0565b5b828204905092915050565b600061134d8261140e565b91506113588361140e565b9250817fffffffffffffffffffffffffffffffffffffffffffffffffffffffffffffffff048311821515161561139157611390611481565b5b828202905092915050565b60006113a78261140e565b91506113b28361140e565b9250828210156113c5576113c4611481565b5b828203905092915050565b60006113db826113ee565b9050919050565b60008115159050919050565b600073ffffffffffffffffffffffffffffffffffffffff82169050919050565b6000819050919050565b60006114238261142a565b9050919050565b60006114358261143c565b9050919050565b6000611447826113ee565b9050919050565b60005b8381101561146c578082015181840152602081019050611451565b8381111561147b576000848401525b50505050565b7f4e487b7100000000000000000000000000000000000000000000000000000000600052601160045260246000fd5b7f4e487b7100000000000000000000000000000000000000000000000000000000600052601260045260246000fd5b600080fd5b6000601f19601f8301169050919050565b7f416c726561647920546f6b656e20697320696e2073616c650000000000000000600082015250565b7f596f752063616e206e6f742073616c652074686973206974656d20626563617560008201527f7365207520617265206e6f74206f776e65720000000000000000000000000000602082015250565b7f596f752063616e20637265617465204d61726b6574204974656d2c20596f752060008201527f617265206e6f74204f776e657200000000000000000000000000000000000000602082015250565b7f506c65617365207375626d6974207468652061736b696e67207072696365206960008201527f6e206f7264657220746f20636f6d706c65746520746865207075726368617365602082015250565b7f5072696365206d75737420626520657175616c20746f206c697374696e67207060008201527f7269636500000000000000000000000000000000000000000000000000000000602082015250565b7f5265656e7472616e637947756172643a207265656e7472616e742063616c6c00600082015250565b7f5072696365206d757374206265206174206c6561737420312077656900000000600082015250565b6116b5816113d0565b81146116c057600080fd5b50565b6116cc8161140e565b81146116d757600080fd5b5056fea2646970667358221220bff58e5327d0812ec92284f7457cd3336e0eefb4355e373d2e4b95456e5935b064736f6c63430008070033",
  "linkReferences": {},
  "deployedLinkReferences": {}
}