{
  "_format": "hh-sol-artifact-1",
  "contractName": "MyToken",
  "sourceName": "contracts/MyToken.sol",
  "abi": [
    {
      "inputs": [],
      "stateMutability": "nonpayable",
      "type": "constructor"
    },
    {
      "anonymous": false,
      "inputs": [
        {
          "indexed": true,
          "internalType": "address",
          "name": "owner",
          "type": "address"
        },
        {
          "indexed": true,
          "internalType": "address",
          "name": "spender",
          "type": "address"
        },
        {
          "indexed": false,
          "internalType": "uint256",
          "name": "value",
          "type": "uint256"
        }
      ],
      "name": "Approval",
      "type": "event"
    },
    {
      "anonymous": false,
      "inputs": [
        {
          "indexed": true,
          "internalType": "address",
          "name": "from",
          "type": "address"
        },
        {
          "indexed": true,
          "internalType": "address",
          "name": "to",
          "type": "address"
        },
        {
          "indexed": false,
          "internalType": "uint256",
          "name": "value",
          "type": "uint256"
        }
      ],
      "name": "Transfer",
      "type": "event"
    },
    {
      "inputs": [
        {
          "internalType": "address",
          "name": "owner",
          "type": "address"
        },
        {
          "internalType": "address",
          "name": "spender",
          "type": "address"
        }
      ],
      "name": "allowance",
      "outputs": [
        {
          "internalType": "uint256",
          "name": "",
          "type": "uint256"
        }
      ],
      "stateMutability": "view",
      "type": "function"
    },
    {
      "inputs": [
        {
          "internalType": "address",
          "name": "spender",
          "type": "address"
        },
        {
          "internalType": "uint256",
          "name": "amount",
          "type": "uint256"
        }
      ],
      "name": "approve",
      "outputs": [
        {
          "internalType": "bool",
          "name": "",
          "type": "bool"
        }
      ],
      "stateMutability": "nonpayable",
      "type": "function"
    },
    {
      "inputs": [
        {
          "internalType": "address",
          "name": "account",
          "type": "address"
        }
      ],
      "name": "balanceOf",
      "outputs": [
        {
          "internalType": "uint256",
          "name": "",
          "type": "uint256"
        }
      ],
      "stateMutability": "view",
      "type": "function"
    },
    {
      "inputs": [],
      "name": "decimal",
      "outputs": [
        {
          "internalType": "uint256",
          "name": "",
          "type": "uint256"
        }
      ],
      "stateMutability": "view",
      "type": "function"
    },
    {
      "inputs": [],
      "name": "decimals",
      "outputs": [
        {
          "internalType": "uint8",
          "name": "",
          "type": "uint8"
        }
      ],
      "stateMutability": "view",
      "type": "function"
    },
    {
      "inputs": [
        {
          "internalType": "address",
          "name": "spender",
          "type": "address"
        },
        {
          "internalType": "uint256",
          "name": "subtractedValue",
          "type": "uint256"
        }
      ],
      "name": "decreaseAllowance",
      "outputs": [
        {
          "internalType": "bool",
          "name": "",
          "type": "bool"
        }
      ],
      "stateMutability": "nonpayable",
      "type": "function"
    },
    {
      "inputs": [
        {
          "internalType": "address",
          "name": "spender",
          "type": "address"
        },
        {
          "internalType": "uint256",
          "name": "addedValue",
          "type": "uint256"
        }
      ],
      "name": "increaseAllowance",
      "outputs": [
        {
          "internalType": "bool",
          "name": "",
          "type": "bool"
        }
      ],
      "stateMutability": "nonpayable",
      "type": "function"
    },
    {
      "inputs": [],
      "name": "initialSupply",
      "outputs": [
        {
          "internalType": "uint256",
          "name": "",
          "type": "uint256"
        }
      ],
      "stateMutability": "view",
      "type": "function"
    },
    {
      "inputs": [],
      "name": "name",
      "outputs": [
        {
          "internalType": "string",
          "name": "",
          "type": "string"
        }
      ],
      "stateMutability": "view",
      "type": "function"
    },
    {
      "inputs": [],
      "name": "symbol",
      "outputs": [
        {
          "internalType": "string",
          "name": "",
          "type": "string"
        }
      ],
      "stateMutability": "view",
      "type": "function"
    },
    {
      "inputs": [],
      "name": "totalSupply",
      "outputs": [
        {
          "internalType": "uint256",
          "name": "",
          "type": "uint256"
        }
      ],
      "stateMutability": "view",
      "type": "function"
    },
    {
      "inputs": [
        {
          "internalType": "address",
          "name": "to",
          "type": "address"
        },
        {
          "internalType": "uint256",
          "name": "amount",
          "type": "uint256"
        }
      ],
      "name": "transfer",
      "outputs": [
        {
          "internalType": "bool",
          "name": "",
          "type": "bool"
        }
      ],
      "stateMutability": "nonpayable",
      "type": "function"
    },
    {
      "inputs": [
        {
          "internalType": "address",
          "name": "from",
          "type": "address"
        },
        {
          "internalType": "address",
          "name": "to",
          "type": "address"
        },
        {
          "internalType": "uint256",
          "name": "amount",
          "type": "uint256"
        }
      ],
      "name": "transferFrom",
      "outputs": [
        {
          "internalType": "bool",
          "name": "",
          "type": "bool"
        }
      ],
      "stateMutability": "nonpayable",
      "type": "function"
    }
  ],
  "bytecode": "0x608060405260126005553480156200001657600080fd5b506040518060400160405280600781526020017f4d79546f6b656e000000000000000000000000000000000000000000000000008152506040518060400160405280600381526020017f4d5954000000000000000000000000000000000000000000000000000000000081525081600390805190602001906200009b9291906200027c565b508060049080519060200190620000b49291906200027c565b505050600554600a620000c891906200046c565b6305f5e100620000d99190620005a9565b600681905550620000f333600654620000f960201b60201c565b620006de565b600073ffffffffffffffffffffffffffffffffffffffff168273ffffffffffffffffffffffffffffffffffffffff1614156200016c576040517f08c379a0000000000000000000000000000000000000000000000000000000008152600401620001639062000364565b60405180910390fd5b62000180600083836200027260201b60201c565b8060026000828254620001949190620003b4565b92505081905550806000808473ffffffffffffffffffffffffffffffffffffffff1673ffffffffffffffffffffffffffffffffffffffff1681526020019081526020016000206000828254620001eb9190620003b4565b925050819055508173ffffffffffffffffffffffffffffffffffffffff16600073ffffffffffffffffffffffffffffffffffffffff167fddf252ad1be2c89b69c2b068fc378daa952ba7f163c4a11628f55a4df523b3ef8360405162000252919062000386565b60405180910390a36200026e600083836200027760201b60201c565b5050565b505050565b505050565b8280546200028a9062000614565b90600052602060002090601f016020900481019282620002ae5760008555620002fa565b82601f10620002c957805160ff1916838001178555620002fa565b82800160010185558215620002fa579182015b82811115620002f9578251825591602001919060010190620002dc565b5b5090506200030991906200030d565b5090565b5b80821115620003285760008160009055506001016200030e565b5090565b60006200033b601f83620003a3565b91506200034882620006b5565b602082019050919050565b6200035e816200060a565b82525050565b600060208201905081810360008301526200037f816200032c565b9050919050565b60006020820190506200039d600083018462000353565b92915050565b600082825260208201905092915050565b6000620003c1826200060a565b9150620003ce836200060a565b9250827fffffffffffffffffffffffffffffffffffffffffffffffffffffffffffffffff038211156200040657620004056200064a565b5b828201905092915050565b6000808291508390505b600185111562000463578086048111156200043b576200043a6200064a565b5b60018516156200044b5780820291505b80810290506200045b85620006a8565b94506200041b565b94509492505050565b600062000479826200060a565b915062000486836200060a565b9250620004b57fffffffffffffffffffffffffffffffffffffffffffffffffffffffffffffffff8484620004bd565b905092915050565b600082620004cf5760019050620005a2565b81620004df5760009050620005a2565b8160018114620004f85760028114620005035762000539565b6001915050620005a2565b60ff8411156200051857620005176200064a565b5b8360020a9150848211156200053257620005316200064a565b5b50620005a2565b5060208310610133831016604e8410600b8410161715620005735782820a9050838111156200056d576200056c6200064a565b5b620005a2565b62000582848484600162000411565b925090508184048111156200059c576200059b6200064a565b5b81810290505b9392505050565b6000620005b6826200060a565b9150620005c3836200060a565b9250817fffffffffffffffffffffffffffffffffffffffffffffffffffffffffffffffff0483118215151615620005ff57620005fe6200064a565b5b828202905092915050565b6000819050919050565b600060028204905060018216806200062d57607f821691505b6020821081141562000644576200064362000679565b5b50919050565b7f4e487b7100000000000000000000000000000000000000000000000000000000600052601160045260246000fd5b7f4e487b7100000000000000000000000000000000000000000000000000000000600052602260045260246000fd5b60008160011c9050919050565b7f45524332303a206d696e7420746f20746865207a65726f206164647265737300600082015250565b6113bc80620006ee6000396000f3fe608060405234801561001057600080fd5b50600436106100cf5760003560e01c8063395093511161008c57806395d89b411161006657806395d89b411461022a578063a457c2d714610248578063a9059cbb14610278578063dd62ed3e146102a8576100cf565b806339509351146101ac57806370a08231146101dc57806376809ce31461020c576100cf565b806306fdde03146100d4578063095ea7b3146100f257806318160ddd1461012257806323b872dd14610140578063313ce56714610170578063378dc3dc1461018e575b600080fd5b6100dc6102d8565b6040516100e99190610e7d565b60405180910390f35b61010c60048036038101906101079190610cc7565b61036a565b6040516101199190610e62565b60405180910390f35b61012a61038d565b6040516101379190610f7f565b60405180910390f35b61015a60048036038101906101559190610c74565b610397565b6040516101679190610e62565b60405180910390f35b6101786103c6565b6040516101859190610f9a565b60405180910390f35b6101966103cf565b6040516101a39190610f7f565b60405180910390f35b6101c660048036038101906101c19190610cc7565b6103d5565b6040516101d39190610e62565b60405180910390f35b6101f660048036038101906101f19190610c07565b61047f565b6040516102039190610f7f565b60405180910390f35b6102146104c7565b6040516102219190610f7f565b60405180910390f35b6102326104cd565b60405161023f9190610e7d565b60405180910390f35b610262600480360381019061025d9190610cc7565b61055f565b60405161026f9190610e62565b60405180910390f35b610292600480360381019061028d9190610cc7565b610649565b60405161029f9190610e62565b60405180910390f35b6102c260048036038101906102bd9190610c34565b61066c565b6040516102cf9190610f7f565b60405180910390f35b6060600380546102e7906110af565b80601f0160208091040260200160405190810160405280929190818152602001828054610313906110af565b80156103605780601f1061033557610100808354040283529160200191610360565b820191906000526020600020905b81548152906001019060200180831161034357829003601f168201915b5050505050905090565b6000806103756106f3565b90506103828185856106fb565b600191505092915050565b6000600254905090565b6000806103a26106f3565b90506103af8582856108c6565b6103ba858585610952565b60019150509392505050565b60006012905090565b60065481565b6000806103e06106f3565b9050610474818585600160008673ffffffffffffffffffffffffffffffffffffffff1673ffffffffffffffffffffffffffffffffffffffff16815260200190815260200160002060008973ffffffffffffffffffffffffffffffffffffffff1673ffffffffffffffffffffffffffffffffffffffff1681526020019081526020016000205461046f9190610fd1565b6106fb565b600191505092915050565b60008060008373ffffffffffffffffffffffffffffffffffffffff1673ffffffffffffffffffffffffffffffffffffffff168152602001908152602001600020549050919050565b60055481565b6060600480546104dc906110af565b80601f0160208091040260200160405190810160405280929190818152602001828054610508906110af565b80156105555780601f1061052a57610100808354040283529160200191610555565b820191906000526020600020905b81548152906001019060200180831161053857829003601f168201915b5050505050905090565b60008061056a6106f3565b90506000600160008373ffffffffffffffffffffffffffffffffffffffff1673ffffffffffffffffffffffffffffffffffffffff16815260200190815260200160002060008673ffffffffffffffffffffffffffffffffffffffff1673ffffffffffffffffffffffffffffffffffffffff16815260200190815260200160002054905083811015610630576040517f08c379a000000000000000000000000000000000000000000000000000000000815260040161062790610f5f565b60405180910390fd5b61063d82868684036106fb565b60019250505092915050565b6000806106546106f3565b9050610661818585610952565b600191505092915050565b6000600160008473ffffffffffffffffffffffffffffffffffffffff1673ffffffffffffffffffffffffffffffffffffffff16815260200190815260200160002060008373ffffffffffffffffffffffffffffffffffffffff1673ffffffffffffffffffffffffffffffffffffffff16815260200190815260200160002054905092915050565b600033905090565b600073ffffffffffffffffffffffffffffffffffffffff168373ffffffffffffffffffffffffffffffffffffffff16141561076b576040517f08c379a000000000000000000000000000000000000000000000000000000000815260040161076290610f3f565b60405180910390fd5b600073ffffffffffffffffffffffffffffffffffffffff168273ffffffffffffffffffffffffffffffffffffffff1614156107db576040517f08c379a00000000000000000000000000000000000000000000000000000000081526004016107d290610ebf565b60405180910390fd5b80600160008573ffffffffffffffffffffffffffffffffffffffff1673ffffffffffffffffffffffffffffffffffffffff16815260200190815260200160002060008473ffffffffffffffffffffffffffffffffffffffff1673ffffffffffffffffffffffffffffffffffffffff168152602001908152602001600020819055508173ffffffffffffffffffffffffffffffffffffffff168373ffffffffffffffffffffffffffffffffffffffff167f8c5be1e5ebec7d5bd14f71427d1e84f3dd0314c0f7b2291e5b200ac8c7c3b925836040516108b99190610f7f565b60405180910390a3505050565b60006108d2848461066c565b90507fffffffffffffffffffffffffffffffffffffffffffffffffffffffffffffffff811461094c578181101561093e576040517f08c379a000000000000000000000000000000000000000000000000000000000815260040161093590610edf565b60405180910390fd5b61094b84848484036106fb565b5b50505050565b600073ffffffffffffffffffffffffffffffffffffffff168373ffffffffffffffffffffffffffffffffffffffff1614156109c2576040517f08c379a00000000000000000000000000000000000000000000000000000000081526004016109b990610f1f565b60405180910390fd5b600073ffffffffffffffffffffffffffffffffffffffff168273ffffffffffffffffffffffffffffffffffffffff161415610a32576040517f08c379a0000000000000000000000000000000000000000000000000000000008152600401610a2990610e9f565b60405180910390fd5b610a3d838383610bd3565b60008060008573ffffffffffffffffffffffffffffffffffffffff1673ffffffffffffffffffffffffffffffffffffffff16815260200190815260200160002054905081811015610ac3576040517f08c379a0000000000000000000000000000000000000000000000000000000008152600401610aba90610eff565b60405180910390fd5b8181036000808673ffffffffffffffffffffffffffffffffffffffff1673ffffffffffffffffffffffffffffffffffffffff16815260200190815260200160002081905550816000808573ffffffffffffffffffffffffffffffffffffffff1673ffffffffffffffffffffffffffffffffffffffff1681526020019081526020016000206000828254610b569190610fd1565b925050819055508273ffffffffffffffffffffffffffffffffffffffff168473ffffffffffffffffffffffffffffffffffffffff167fddf252ad1be2c89b69c2b068fc378daa952ba7f163c4a11628f55a4df523b3ef84604051610bba9190610f7f565b60405180910390a3610bcd848484610bd8565b50505050565b505050565b505050565b600081359050610bec81611358565b92915050565b600081359050610c018161136f565b92915050565b600060208284031215610c1d57610c1c61113f565b5b6000610c2b84828501610bdd565b91505092915050565b60008060408385031215610c4b57610c4a61113f565b5b6000610c5985828601610bdd565b9250506020610c6a85828601610bdd565b9150509250929050565b600080600060608486031215610c8d57610c8c61113f565b5b6000610c9b86828701610bdd565b9350506020610cac86828701610bdd565b9250506040610cbd86828701610bf2565b9150509250925092565b60008060408385031215610cde57610cdd61113f565b5b6000610cec85828601610bdd565b9250506020610cfd85828601610bf2565b9150509250929050565b610d1081611039565b82525050565b6000610d2182610fb5565b610d2b8185610fc0565b9350610d3b81856020860161107c565b610d4481611144565b840191505092915050565b6000610d5c602383610fc0565b9150610d6782611155565b604082019050919050565b6000610d7f602283610fc0565b9150610d8a826111a4565b604082019050919050565b6000610da2601d83610fc0565b9150610dad826111f3565b602082019050919050565b6000610dc5602683610fc0565b9150610dd08261121c565b604082019050919050565b6000610de8602583610fc0565b9150610df38261126b565b604082019050919050565b6000610e0b602483610fc0565b9150610e16826112ba565b604082019050919050565b6000610e2e602583610fc0565b9150610e3982611309565b604082019050919050565b610e4d81611065565b82525050565b610e5c8161106f565b82525050565b6000602082019050610e776000830184610d07565b92915050565b60006020820190508181036000830152610e978184610d16565b905092915050565b60006020820190508181036000830152610eb881610d4f565b9050919050565b60006020820190508181036000830152610ed881610d72565b9050919050565b60006020820190508181036000830152610ef881610d95565b9050919050565b60006020820190508181036000830152610f1881610db8565b9050919050565b60006020820190508181036000830152610f3881610ddb565b9050919050565b60006020820190508181036000830152610f5881610dfe565b9050919050565b60006020820190508181036000830152610f7881610e21565b9050919050565b6000602082019050610f946000830184610e44565b92915050565b6000602082019050610faf6000830184610e53565b92915050565b600081519050919050565b600082825260208201905092915050565b6000610fdc82611065565b9150610fe783611065565b9250827fffffffffffffffffffffffffffffffffffffffffffffffffffffffffffffffff0382111561101c5761101b6110e1565b5b828201905092915050565b600061103282611045565b9050919050565b60008115159050919050565b600073ffffffffffffffffffffffffffffffffffffffff82169050919050565b6000819050919050565b600060ff82169050919050565b60005b8381101561109a57808201518184015260208101905061107f565b838111156110a9576000848401525b50505050565b600060028204905060018216806110c757607f821691505b602082108114156110db576110da611110565b5b50919050565b7f4e487b7100000000000000000000000000000000000000000000000000000000600052601160045260246000fd5b7f4e487b7100000000000000000000000000000000000000000000000000000000600052602260045260246000fd5b600080fd5b6000601f19601f8301169050919050565b7f45524332303a207472616e7366657220746f20746865207a65726f206164647260008201527f6573730000000000000000000000000000000000000000000000000000000000602082015250565b7f45524332303a20617070726f766520746f20746865207a65726f20616464726560008201527f7373000000000000000000000000000000000000000000000000000000000000602082015250565b7f45524332303a20696e73756666696369656e7420616c6c6f77616e6365000000600082015250565b7f45524332303a207472616e7366657220616d6f756e742065786365656473206260008201527f616c616e63650000000000000000000000000000000000000000000000000000602082015250565b7f45524332303a207472616e736665722066726f6d20746865207a65726f20616460008201527f6472657373000000000000000000000000000000000000000000000000000000602082015250565b7f45524332303a20617070726f76652066726f6d20746865207a65726f2061646460008201527f7265737300000000000000000000000000000000000000000000000000000000602082015250565b7f45524332303a2064656372656173656420616c6c6f77616e63652062656c6f7760008201527f207a65726f000000000000000000000000000000000000000000000000000000602082015250565b61136181611027565b811461136c57600080fd5b50565b61137881611065565b811461138357600080fd5b5056fea26469706673582212201bb4559480f5f3fc8e773d2b58e324963b8c82a677f317ce9e0b0c805e7dd3e064736f6c63430008070033",
  "linkReferences": {},
  "deployedLinkReferences": {}
}